:100000000C9446000C9465000C9465000C946500FB
:100010000C9465000C9465000C9465000C946500CC
:100020000C9465000C9465000C9465000C946500BC
:100030000C9465000C9466030C9465000C946500A8
:100040000C9465000C9465000C9465000C9465009C
:100050000C9465000C9465000C9465000C9465008C
:100060000C9465000C9465000C9465000C9465007C
:100070000C9465000C9465000C9465000C9465006C
:100080000C9465000C9465000C94650011241FBE4F
:10009000CFEFD0E4DEBFCDBF11E0A0E0B1E0E2E100
:1000A000FBE000E00BBF02C007900D92A834B1073F
:1000B000D9F721E0A8E4B1E001C01D92AA36B20749
:1000C000E1F70E944A040C9487050C940000CF933A
:1000D000DF93CDB7DEB781E00E948E000000DF9194
:1000E000CF910895CF93DF93CDB7DEB784E690E04C
:1000F0000E94320188E30E948E0086E00E948E00FA
:100100008FE00E948E0081E00E948E008AE090E0E5
:100110000E9432010000DF91CF910895CF93DF93C9
:100120001F92CDB7DEB789838BE290E02BE230E0FF
:10013000F90120812F7BFC01208382E290E029815C
:10014000FC0120838BE290E02BE230E0F90120817A
:100150002068FC01208300008BE290E02BE230E07D
:10016000F90120812F77FC01208382E090E00E943A
:10017000320100000F90DF91CF910895CF93DF936C
:100180001F92CDB7DEB789838BE290E02BE230E09F
:10019000F90120812064FC01208382E290E0298122
:1001A000FC0120838BE290E02BE230E0F90120811A
:1001B0002068FC01208300008BE290E02BE230E01D
:1001C000F90120812F77FC01208381E090E00E94DB
:1001D000320100000F90DF91CF910895CF93DF930C
:1001E00000D000D0CDB7DEB78A837C836B830E94BA
:1001F00067008A81898311C0898191E0980F998372
:100200000E941B018B819C819C012F5F3F4F3C838F
:100210002B83FC0180810E94BE008B819C81FC01AC
:100220008081882349F700000F900F900F900F9066
:10023000DF91CF910895CF93DF931F92CDB7DEB7B3
:1002400089838981813128F4898181580E948E00B7
:1002500004C0898181550E948E0000000F90DF91BB
:10026000CF910895CF93DF9300D000D000D0CDB7C9
:10027000DEB79E838D831A82198213C01C821B8273
:1002800006C000008B819C8101969C838B838B81AF
:100290009C8187309340ACF389819A8101969A833F
:1002A000898329813A818D819E812817390734F30A
:1002B000000026960FB6F894DEBF0FBECDBFDF91CB
:1002C000CF910895CF93DF9300D01F92CDB7DEB7C3
:1002D00089836A834B838B81882371F08A81282FDD
:1002E00030E081E090E002C0880F991F2A95E2F784
:1002F000982F8981892B0EC08A81282F30E081E0D8
:1003000090E002C0880F991F2A95E2F7982F9095E8
:10031000898189230F900F900F90DF91CF910895DD
:10032000CF93DF9300D0CDB7DEB789836A838A810C
:10033000282F30E081E090E002C0880F991F2A95B5
:10034000E2F7982F898189230F900F90DF91CF9149
:1003500008950F931F93CF93DF93CDB7DEB708E2D5
:1003600010E040E064E08FEF0E946201F8018083BA
:10037000000086E290E0FC018081809560E00E94B0
:100380009001882311F081E3D3C086E290E0FC0164
:100390008081809561E00E949001882311F084E3C0
:1003A000C7C086E290E0FC018081809562E00E94F7
:1003B0009001882311F087E3BBC086E290E0FC0146
:1003C0008081809563E00E949001882311F08AE289
:1003D000AFC008E210E040E065E08FEF0E946201EC
:1003E000F8018083000086E290E0FC018081809526
:1003F00060E00E949001882311F082E399C086E2B8
:1004000090E0FC018081809561E00E94900188234A
:1004100011F085E38DC086E290E0FC01808180953B
:1004200062E00E949001882311F088E381C086E297
:1004300090E0FC018081809563E00E949001882318
:1004400011F080E375C008E210E040E066E08FEF55
:100450000E946201F8018083000086E290E0FC01C6
:100460008081809560E00E949001882311F083E3F1
:100470005FC086E290E0FC018081809561E00E948F
:100480009001882311F086E353C086E290E0FC01DE
:100490008081809562E00E949001882311F089E3B9
:1004A00047C086E290E0FC018081809563E00E9475
:1004B0009001882311F083E23BC008E210E040E0A5
:1004C00067E08FEF0E946201F8018083000086E2FE
:1004D00090E0FC018081809560E00E94900188237B
:1004E00011F081E425C086E290E0FC0180818095D6
:1004F00061E00E949001882311F082E419C086E235
:1005000090E0FC018081809562E00E949001882348
:1005100011F083E40DC086E290E0FC0180818095BB
:1005200063E00E949001882311F084E401C080E020
:10053000DF91CF911F910F910895CF93DF93CDB7A6
:10054000DEB72C970FB6F894DEBF0FBECDBF6D831C
:100550007E838F83988729873A874B875C878D8135
:100560009E81AF81B88529853A854B855C85BC0124
:10057000CD010E946505DC01CB0189839A83AB83A1
:10058000BC8389819A81AB81BC81892B8A2B8B2B7F
:1005900029F489859A85AB85BC8511C089859A85A2
:1005A000AB85BC858D839E83AF83B88789819A8113
:1005B000AB81BC8189879A87AB87BC87D0CFBC01D0
:1005C000CD012C960FB6F894DEBF0FBECDBFDF91E4
:1005D000CF910895CF93DF9300D000D0CDB7DEB791
:1005E00069837A838B839C8389819A81AB81BC8167
:1005F0008093000190930101A0930201B093030145
:100600008091000190910101A0910201B09103013C
:100610008093490190934A01A0934B01B0934C0100
:1006200000000F900F900F900F90DF91CF910895E1
:10063000CF93DF93CDB7DEB781E890E02BE0FC01EC
:10064000208388E890E02DE730E0FC0131832083AF
:100650008FE690E022E0FC01208384E890E0FC013A
:10066000118210828091000190910101A0910201FC
:10067000B09103018093490190934A01A0934B01EB
:10068000B0934C018FE590E02FE530E0F901208137
:100690002068FC0120830000DF91CF910895CF9363
:1006A000DF93CDB7DEB781E890E0FC011082000057
:1006B000DF91CF910895CF93DF93CDB7DEB781E07F
:1006C000809348010000DF91CF9108951F920F920F
:1006D00000905F000F92112400905B000F922F9307
:1006E0003F934F935F936F937F938F939F93AF93BA
:1006F000BF93EF93FF93CF93DF93CDB7DEB7809196
:10070000490190914A01A0914B01B0914C01019790
:10071000A109B1098093490190934A01A0934B012B
:10072000B0934C018091490190914A01A0914B01F5
:10073000B0914C01892B8A2B8B2B91F40E945B0387
:100740008091000190910101A0910201B0910301FB
:100750008093490190934A01A0934B01B0934C01BF
:100760000000DF91CF91FF91EF91BF91AF919F91E9
:100770008F917F916F915F914F913F912F910F904A
:1007800000925B000F9000925F000F901F901895F1
:10079000CF93DF9300D01F92CDB7DEB789837B83E1
:1007A0006A8389818A3031F48A819B81BC018DE022
:1007B0000E94C80380EC90E0FC018081882F90E0CB
:1007C00080729927892BB1F386EC90E02981FC0196
:1007D000208380E090E00F900F900F90DF91CF91F9
:1007E0000895CF93DF9300D0CDB7DEB79A83898386
:1007F00089819A81009719F0019751F041C01092B8
:1008000059011092580181E090E09A8389833BC09E
:10081000109259011BC080915901882F90E02091BE
:100820005801422F50E020915901222F30E0240F2F
:10083000351F2E5E3E4FF9012081865A9E4FFC01E6
:100840002083809159018F5F8093590180915901D4
:10085000803108F3809158018F5F80935801809117
:100860005801853311F4109258016AE571E081E076
:1008700090E00E94EE0081E090E09A83898303C0BB
:100880001A821982000089819A810F900F90DF915E
:10089000CF9108950F931F93CF93DF93CDB7DEB71A
:1008A00027970FB6F894DEBF0FBECDBF81E290E070
:1008B0002FEFFC01208382E290E0FC01108284E2B1
:1008C00090E02FEFFC01208385E290E0FC01108294
:1008D00087E290E02FEFFC01208388E290E0FC01AA
:1008E00010828AE290E02FEFFC0120838BE290E0FF
:1008F000FC0110828DE491E09F838E8381E090E083
:100900009C838B838FEF8D838D8180934D0180E954
:1009100091E0A0E0B0E080934E0190934F01A0934E
:100920005001B093510180914E0190914F01A091DF
:100930005001B09151018093520190935301A093C3
:100940005401B093550181EF93E090935701809348
:10095000560162E370E080E090E00E94EA020E94AB
:1009600018030E94720081E090E00E941B011A822D
:1009700019829BC089819A81880F991F9E012F5FE0
:100980003F4F820F931F0596FC0180819181FC01EE
:10099000258136814781508589819A81880F991FE9
:1009A000BE016F5F7F4F860F971F0596FC01808108
:1009B0009181FC0181819281A381B481281739073B
:1009C0004A075B0708F445C089819A81880F991FFF
:1009D0009E012F5F3F4F820F931F0596FC01008100
:1009E000118189819A81880F991F9E012F5F3F4F46
:1009F000820F931F0596FC0180819181FC01218566
:100A0000328589819A81880F991FAE014F5F5F4FB0
:100A1000840F951F0596FC0180819181FC018081E6
:100A2000082E000C990BF9010995F8018083898142
:100A30009A81880F991F9E012F5F3F4F820F931F4E
:100A40000596FC0180819181FC0115821682178236
:100A5000108689819A81880F991F9E012F5F3F4FD1
:100A6000820F931F0596FC012081318189819A8133
:100A7000880F991FAE014F5F5F4F840F951F05963A
:100A8000FC0180819181FC0185819681A781B085DF
:100A9000C296A11DB11DF90185839683A783B087F6
:100AA00089819A8101969A83898329813A818B81F0
:100AB0009C812817390708F45DCF00008091480118
:100AC0008823E1F31092480152CFA1E21A2EAA1B0B
:100AD000BB1BFD010DC0AA1FBB1FEE1FFF1FA217EE
:100AE000B307E407F50720F0A21BB30BE40BF50BEB
:100AF000661F771F881F991F1A9469F76095709574
:100B0000809590959B01AC01BD01CF010895F894AB
:020B1000FFCF15
:100B1200010000000000000200000000C803000005
:100B22000000202020202020202020202020202003
:100B32002020435331323042206973204C6567656F
:100B42006E642E2E2E207761697420666F72206982
:080B52007420444152592100B6
:00000001FF
