:100000000C9446000C9465000C9465000C946500FB
:100010000C9465000C9465000C9465000C946500CC
:100020000C9465000C9465000C9465000C946500BC
:100030000C9465000C94B5000C9465000C9465005C
:100040000C9465000C9465000C9465000C9465009C
:100050000C9465000C9465000C9465000C9465008C
:100060000C9465000C9465000C9465000C9465007C
:100070000C9465000C9465000C9465000C9465006C
:100080000C9465000C9465000C94650011241FBE4F
:10009000CFEFD0E4DEBFCDBF11E0A0E0B1E0E2EFF2
:1000A000F9E000E00BBF02C007900D92A235B10746
:1000B000D9F721E0A2E5B1E001C01D92AE35B2074B
:1000C000E1F70E94F7020C94F7040C940000CF9320
:1000D000DF93CDB7DEB781E890E02BE0FC01208311
:1000E00088E890E02DE730E0FC01318320838FE643
:1000F00090E022E0FC01208384E890E0FC01118282
:1001000010828091000190910101A0910201B091B3
:1001100003018093530190935401A0935501B09330
:1001200056018FE590E02FE530E0F901208120684D
:10013000FC0120830000DF91CF910895CF93DF93DE
:10014000CDB7DEB781E890E0FC0110820000DF91BE
:10015000CF910895CF93DF93CDB7DEB781E0809341
:1001600052010000DF91CF9108951F920F920090ED
:100170005F000F92112400905B000F922F933F932A
:100180004F935F936F937F938F939F93AF93BF939F
:10019000EF93FF93CF93DF93CDB7DEB780915301F9
:1001A00090915401A0915501B09156010197A10978
:1001B000B1098093530190935401A0935501B093DA
:1001C00056018091530190915401A0915501B09135
:1001D0005601892B8A2B8B2B91F40E94AA008091C7
:1001E000000190910101A0910201B091030180935F
:1001F000530190935401A0935501B0935601000010
:10020000DF91CF91FF91EF91BF91AF919F918F912E
:100210007F916F915F914F913F912F910F9000923D
:100220005B000F9000925F000F901F901895CF9386
:10023000DF9300D000D0CDB7DEB769837A838B839C
:100240009C8389819A81AB81BC81809300019093CA
:100250000101A0930201B0930301809100019091EC
:100260000101A0910201B091030180935301909389
:100270005401A0935501B093560100000F900F90C8
:100280000F900F90DF91CF910895CF93DF9300D01F
:100290001F92CDB7DEB789837B836A8389818A30D9
:1002A00031F48A819B81BC018DE00E94450180EC84
:1002B00090E0FC018081882F90E080729927892B43
:1002C000B1F386EC90E02981FC01208380E090E08E
:1002D0000F900F900F90DF91CF9108950F931F9380
:1002E000CF93DF9300D000D0CDB7DEB769837A8398
:1002F0008B839C838091570190915801A091590163
:10030000B0915A019C01AD0169817A818B819C81F8
:100310000E942603882309F477C020E030E0A90179
:1003200069817A818B819C810E942603882351F404
:1003300081E990E021E930E0F90120812870FC0199
:10034000208309C081E990E021E930E0F9012081B2
:100350002360FC01208328E539E344E75FE36981FA
:100360007A818B819C810E942603882344F488E94A
:1003700090E02FEF3FEFFC013183208334C020E079
:1003800034E244EF56E469817A818B819C810E943A
:100390008504181634F488E990E0FC01118210827B
:1003A00022C008E910E020E030E040E053E4698139
:1003B0007A818B819C810E948A04DC01CB019C01A3
:1003C000AD0160E074E284EF9AE40E942B03DC014B
:1003D000CB01BC01CD010E949D03DC01CB01019743
:1003E000F8019183808384E990E0FC0111821082FE
:1003F00089819A81AB81BC81809357019093580188
:10040000A0935901B0935A0100000F900F900F90E4
:100410000F90DF91CF911F910F910895CF93DF93AC
:10042000CDB7DEB780E990E020E4FC01208381E9CC
:1004300090E02BE0FC01208360E070E0CB010E94A3
:100440006E010000DF91CF910895CF93DF93CDB778
:10045000DEB780E990E0FC01108281E990E0FC01C8
:1004600010820000DF91CF910895CF93DF93CDB735
:10047000DEB780915B0190915C018230910589F13A
:100480008330910528F4009759F0019781F0ABC0B3
:100490008330910509F455C0049709F48CC0A3C0BA
:1004A00081E090E090935C0180935B019CC010928E
:1004B0005D0180E290E0FC018081882F90E08170F6
:1004C0009927892B39F482E090E090935C01809326
:1004D0005B0189C081E090E090935C0180935B01B7
:1004E00082C080E290E0FC018081882F90E08170E2
:1004F0009927892BF9F083E090E090935C01809339
:100500005B0180915D01882F90E0880F991F8E5EBE
:100510009E4FFC0180819181CC01A0E0B0E0BC0144
:10052000CD010E94D303DC01CB01BC01CD010E94AF
:100530006E0159C082E090E090935C0180935B0172
:1005400052C080915D018032C1F480E290E0FC01F4
:100550008081882F90E081709927892B39F484E07D
:1005600090E090935C0180935B013DC081E090E05E
:1005700090935C0180935B0136C080915D018F5F39
:1005800080935D0180915D01882F90E0880F991F15
:100590008E5E9E4FFC0180819181CC01A0E0B0E095
:1005A000BC01CD010E94D303DC01CB01BC01CD0114
:1005B0000E946E0118C080E290E0FC018081882FCB
:1005C00090E081709927892B39F484E090E0909332
:1005D0005C0180935B0107C081E090E090935C0137
:1005E00080935B0100C00000DF91CF910895CF930D
:1005F000DF93CDB7DEB781E290E0FC01108282E2AA
:1006000090E02FEFFC01208384E290E02FEFFC01CB
:10061000208385E290E020E4FC01208310925C01BD
:1006200010925B016EE571E080E090E00E9417019E
:100630000E9467000E940E020E9435020000809115
:1006400052018823E1F310925201F6CF0E94100468
:1006500008F481E008950E943F030C944B040E942B
:10066000440458F00E943D0440F029F45F3F29F013
:100670000C94340451110C947F040C943A040E949D
:100680005C0468F39923B1F3552391F3951B550B43
:10069000BB27AA2762177307840738F09F5F5F4F55
:1006A000220F331F441FAA1FA9F335D00E2E3AF094
:1006B000E0E832D091505040E695001CCAF72BD0AC
:1006C000FE2F29D0660F771F881FBB1F26173707FD
:1006D0004807AB07B0E809F0BB0B802DBF01FF272F
:1006E00093585F4F3AF09E3F510578F00C943404D4
:1006F0000C947F045F3FE4F3983ED4F3869577959E
:100700006795B795F7959F5FC9F7880F911D9695E7
:10071000879597F90895E1E0660F771F881FBB1F43
:10072000621773078407BA0720F0621B730B840BF0
:10073000BA0BEE1F88F7E09508950E94A403689411
:10074000B1110C947F0408950E94640488F09F57AF
:1007500098F0B92F9927B751B0F0E1F0660F771FE5
:10076000881F991F1AF0BA95C9F714C0B13091F0DB
:100770000E947E04B1E008950C947E04672F782FC8
:100780008827B85F39F0B93FCCF3869577956795A0
:10079000B395D9F73EF490958095709561957F4F0C
:1007A0008F4F9F4F0895E89409C097FB3EF49095B2
:1007B0008095709561957F4F8F4F9F4F9923A9F03A
:1007C000F92F96E9BB279395F695879577956795C9
:1007D000B795F111F8CFFAF4BB0F11F460FF1BC00D
:1007E0006F5F7F4F8F4F9F4F16C0882311F096E9A0
:1007F00011C0772321F09EE8872F762F05C066234E
:1008000071F096E8862F70E060E02AF09A95660F06
:10081000771F881FDAF7880F9695879597F90895BF
:10082000990F0008550FAA0BE0E8FEEF1616170601
:10083000E807F907C0F012161306E407F50798F069
:10084000621B730B840B950B39F40A2661F0232B82
:10085000242B252B21F408950A2609F4A140A695FE
:100860008FEF811D811D089597F99F6780E870E0E3
:1008700060E008959FEF80EC089500240A94161616
:10088000170618060906089500240A94121613067E
:10089000140605060895092E0394000C11F488230C
:1008A00052F0BB0F40F4BF2B11F460FF04C06F5F28
:1008B0007F4F8F4F9F4F089557FD9058440F551FFE
:1008C00059F05F3F71F04795880F97FB991F61F0D2
:1008D0009F3F79F087950895121613061406551F49
:1008E000F2CF4695F1DF08C0161617061806991FB5
:1008F000F1CF86957105610508940895E894BB27AA
:1009000066277727CB0197F908950E94100408F411
:100910008FEF08950E949D040C944B040E943D04A7
:1009200038F00E94440420F0952311F00C94340414
:100930000C943A0411240C947F040E945C0470F31C
:10094000959FC1F3950F50E0551F629FF001729F74
:10095000BB27F00DB11D639FAA27F00DB11DAA1F83
:10096000649F6627B00DA11D661F829F2227B00DD0
:10097000A11D621F739FB00DA11D621F839FA00D5B
:10098000611D221F749F3327A00D611D231F849FAB
:10099000600D211D822F762F6A2F11249F57504002
:1009A0009AF0F1F088234AF0EE0FFF1FBB1F661F7D
:1009B000771F881F91505040A9F79E3F510580F046
:1009C0000C9434040C947F045F3FE4F3983ED4F31A
:1009D000869577956795B795F795E7959F5FC1F7EA
:1009E000FE2B880F911D9695879597F90895F89499
:0209F000FFCF37
:1009F20001000000000000020000000045010000AC
:100A020000000B02D201B801D201B8015D0105015B
:100A1200050125010501250149015D010B020B02BA
:100A22000B024B020B024B029302BA020B020B02A5
:100A32000B02D201B80188015D010B020B0200001A
:020A42000000B2
:00000001FF
