:100000000C9446000C9465000C9465000C946500FB
:100010000C9465000C9465000C9465000C946500CC
:100020000C9465000C9465000C9465000C946500BC
:100030000C9465000C94B5000C9465000C9465005C
:100040000C9465000C9465000C9465000C9465009C
:100050000C9465000C9465000C9465000C9465008C
:100060000C9465000C9465000C9465000C9465007C
:100070000C9465000C9465000C9465000C9465006C
:100080000C9465000C9465000C94650011241FBE4F
:10009000CFEFD0E4DEBFCDBF11E0A0E0B1E0E8E1FA
:1000A000F7E000E00BBF02C007900D92A231B1074C
:1000B000D9F721E0A2E1B1E001C01D92A432B2075C
:1000C000E1F70E940A030C948A030C940000CF937A
:1000D000DF93CDB7DEB781E890E02BE0FC01208311
:1000E00088E890E02DE730E0FC01318320838FE643
:1000F00090E022E0FC01208384E890E0FC01118282
:1001000010828091000190910101A0910201B091B3
:1001100003018093130190931401A0931501B093F0
:1001200016018FE590E02FE530E0F901208120688D
:10013000FC0120830000DF91CF910895CF93DF93DE
:10014000CDB7DEB781E890E0FC0110820000DF91BE
:10015000CF910895CF93DF93CDB7DEB781E0809341
:1001600012010000DF91CF9108951F920F9200902D
:100170005F000F92112400905B000F922F933F932A
:100180004F935F936F937F938F939F93AF93BF939F
:10019000EF93FF93CF93DF93CDB7DEB78091130139
:1001A00090911401A0911501B09116010197A10938
:1001B000B1098093130190931401A0931501B0939A
:1001C00016018091130190911401A0911501B09135
:1001D0001601892B8A2B8B2B91F40E94AA00809107
:1001E000000190910101A0910201B091030180935F
:1001F000130190931401A0931501B0931601000010
:10020000DF91CF91FF91EF91BF91AF919F918F912E
:100210007F916F915F914F913F912F910F9000923D
:100220005B000F9000925F000F901F901895CF9386
:10023000DF9300D000D0CDB7DEB769837A838B839C
:100240009C8389819A81AB81BC81809300019093CA
:100250000101A0930201B0930301809100019091EC
:100260000101A0910201B0910301809313019093C9
:100270001401A0931501B093160100000F900F9088
:100280000F900F90DF91CF910895CF93DF9300D01F
:100290001F92CDB7DEB789837B836A8389818A30D9
:1002A00031F48A819B81BC018DE00E94450180EC84
:1002B00090E0FC018081882F90E080729927892B43
:1002C000B1F386EC90E02981FC01208380E090E08E
:1002D0000F900F900F90DF91CF910895CF93DF9300
:1002E000CDB7DEB78091170190911801813091054B
:1002F00099F08130910530F082309105B9F0039783
:10030000F9F028C081E090E09093180180931701E4
:1003100081E080931C011EC082E090E09093180160
:100320008093170182E080931C0114C083E090E069
:10033000909318018093170184E080931C010AC0F8
:1003400081E090E0909318018093170181E0809301
:100350001C0100000000DF91CF910895CF93DF933F
:10036000CDB7DEB7809122019091230181309105B4
:1003700079F08130910518F00297A1F01CC081E05E
:1003800090E090932301809322011092210113C0E9
:1003900082E090E0909323018093220188E0809393
:1003A000210109C081E090E0909323018093220114
:1003B0001092210100000000DF91CF910895CF93AA
:1003C000DF93CDB7DEB78091190190911A01823089
:1003D0009105F9F08330910530F4009761F00197B1
:1003E00009F46BC0E8C08330910509F4AFC00497ED
:1003F00009F4C6C0E0C082E090E090931A018093B7
:10040000190110921E0110921D0185E080931B01BD
:10041000D2C080E290E0FC018081882F90E080953E
:10042000909587709927049739F481E090E0909334
:100430001A0180931901BEC080E290E0FC01808126
:10044000882F90E08095909587709927019789F47F
:1004500083E090E090931A018093190180911B0131
:100460008A3008F0A7C080911B018F5F80931B0129
:10047000A1C080E290E0FC018081882F90E080950F
:10048000909587709927029789F484E090E0909383
:100490001A018093190180911B01823008F48AC0EF
:1004A00080911B01815080931B0184C082E090E009
:1004B00090931A01809319017DC090911D01809144
:1004C0001B01891720F080E180931E011EC08091DE
:1004D0001D01282F30E080911B01882F90E0880FAC
:1004E000991F821793078CF010921E0180911D01B5
:1004F000282F30E080911B01882F90E0880F991FF2
:100500002817390711F410921D0180E290E0FC01D8
:100510008081882F90E08095909587709927049727
:1005200061F481E090E090931A0180931901809129
:100530001D018F5F80931D013EC082E090E090938B
:100540001A018093190110921D0135C080E290E0DC
:10055000FC018081882F90E0809590958770992785
:10056000019739F483E090E090931A018093190188
:1005700022C082E090E090931A01809319011BC081
:1005800080E290E0FC018081882F90E0809590953A
:1005900087709927029739F484E090E090931A01CC
:1005A0008093190108C082E090E090931A01809333
:1005B000190101C000000000DF91CF910895CF9391
:1005C000DF93CDB7DEB780911F0190912001009796
:1005D00019F0019741F01AC081E090E0909320015A
:1005E00080931F0113C085E290E030911C0120919F
:1005F0002101322B20911E01232BFC01208381E05D
:1006000090E09093200180931F0100000000DF9193
:10061000CF910895CF93DF93CDB7DEB72C970FB668
:10062000F894DEBF0FBECDBF84E290E0FC011082E3
:1006300082E290E02FEFFC01208384E290E02FEF34
:10064000FC01208385E290E0FC01108219821A826D
:100650001B821C821D821E821F82188681E090E010
:10066000A0E0B0E089879A87AB87BC8789859A85A7
:10067000AB85BC85BC01CD010E9417010E946700BB
:1006800089819A81AB81BC818C329140A105B105F1
:1006900031F40E946E0119821A821B821C828D81A4
:1006A0009E81AF81B885883E9340A105B10531F4A4
:1006B0000E94AE011D821E821F8218860E94DF01E9
:1006C0000E94DF020000809112018823E1F3109262
:1006D000120129813A814B815C8189859A85AB859C
:1006E000BC85820F931FA41FB51F89839A83AB8398
:1006F000BC832D813E814F81588589859A85AB8544
:10070000BC85820F931FA41FB51F8D839E83AF836B
:08071000B887B6CFF894FFCFC3
:100718000100000000000002000000004501000088
:020728000000CF
:00000001FF
