:100000000C9446000C945D000C945D000C945D0013
:100010000C945D000C945D000C945D000C945D00EC
:100020000C945D000C945D000C945D000C945D00DC
:100030000C945D000C945D000C945D000C945D00CC
:100040000C945D000C945D000C945D000C945D00BC
:100050000C945D000C945D000C945D000C945D00AC
:100060000C945D000C945D000C945D000C945D009C
:100070000C945D000C945D000C945D000C945D008C
:100080000C945D000C945D000C945D0011241FBE67
:10009000CFEFD0E4DEBFCDBF11E0A0E0B1E0E0E102
:1000A000F5E000E00BBF02C007900D92AE30B10743
:1000B000D9F70E9494010C9486020C940000CF930F
:1000C000DF93CDB7DEB781E00E9486000000DF91AC
:1000D000CF910895CF93DF93CDB7DEB784E690E05C
:1000E0000E942A0188E30E94860086E00E94860022
:1000F0008FE00E94860081E00E9486008AE090E006
:100100000E942A010000DF91CF910895CF93DF93E1
:100110001F92CDB7DEB789838BE290E02BE230E00F
:10012000F90120812F7BFC01208388E290E0298166
:10013000FC0120838BE290E02BE230E0F90120818A
:100140002068FC01208300008BE290E02BE230E08D
:10015000F90120812F77FC01208382E090E00E944A
:100160002A0100000F90DF91CF910895CF93DF9384
:100170001F92CDB7DEB789838BE290E02BE230E0AF
:10018000F90120812064FC01208388E290E029812C
:10019000FC0120838BE290E02BE230E0F90120812A
:1001A0002068FC01208300008BE290E02BE230E02D
:1001B000F90120812F77FC01208381E090E00E94EB
:1001C0002A0100000F90DF91CF910895CF93DF9324
:1001D00000D000D0CDB7DEB78A837C836B830E94CA
:1001E0005F008A81898311C0898191E0980F99838A
:1001F0000E9413018B819C819C012F5F3F4F3C83A8
:100200002B83FC0180810E94B6008B819C81FC01C4
:100210008081882349F700000F900F900F900F9076
:10022000DF91CF910895CF93DF931F92CDB7DEB7C3
:1002300089838981813128F4898181580E948600CF
:1002400004C0898181550E94860000000F90DF91D3
:10025000CF910895CF93DF9300D000D000D0CDB7D9
:10026000DEB79E838D831A82198213C01C821B8283
:1002700006C000008B819C8101969C838B838B81BF
:100280009C8187309340ACF389819A8101969A834F
:10029000898329813A818D819E812817390734F31A
:1002A000000026960FB6F894DEBF0FBECDBFDF91DB
:1002B000CF910895CF93DF9300D01F92CDB7DEB7D3
:1002C00089837B836A8389818A3031F48A819B8127
:1002D000BC018DE00E945A0180EC90E0FC0180811D
:1002E000882F90E080729927892BB1F386EC90E0FB
:1002F0002981FC01208380E090E00F900F900F9007
:10030000DF91CF910895CF93DF93CDB7DEB78AE722
:1003100090E02AE730E0F9012081206EFC01208383
:100320000000DF91CF910895CF93DF9300D000D0EC
:100330001F92CDB7DEB781E290E0FC01108282E22D
:1003400090E02FEFFC01208384E290E02FEFFC018E
:10035000208385E290E0FC0110828AE290E02FEF9A
:10036000FC0120838BE290E0FC0110820E9483015B
:1003700088EC90E09A83898388E790E0FC01808193
:1003800091819C838B838B818D838D81282F30E09D
:1003900089819A812817390730F085E290E02FEFA4
:1003A000FC012083E9CF8D81482F50E089819A811B
:1003B0009C01369527953695279536952795C90141
:1003C000880F991F880F991F880F991F821B930B05
:1003D0004817590730F085E290E02FE7FC012083B1
:1003E000CBCF8D81482F50E089819A819C01369531
:1003F00027953695279536952795C901880F991F1A
:10040000820F931F880F991F4817590730F085E214
:1004100090E02FE3FC012083AFCF8D81482F50E087
:1004200089819A819C013695279536952795369531
:100430002795C901880F991F880F991F820F931F55
:100440004817590730F085E290E02FE1FC01208346
:1004500093CF8D81282F30E089819A819695879559
:100460009695879596958795880F991F880F991F60
:100470002817390730F085E290E02FE0FC01208357
:100480007BCF8D81482F50E089819A819C013695E0
:1004900027953695279536952795C901880F991F79
:1004A000820F931F4817590730F085E290E027E04C
:1004B000FC01208361CF8D81282F30E089819A81D2
:1004C000969587959695879596958795880F991F08
:1004D0002817390730F085E290E023E0FC01208303
:1004E0004BCF8D81282F30E089819A819695879511
:1004F00096958795969587952817390708F43CCFE8
:1005000085E290E021E0FC01208336CFF894FFCF14
:0E05100000000002000000005A010000000080
:00000001FF
