:100000000C944D000C946C000C946C000C946C00DF
:100010000C946C000C946C000C946C000C946C00B0
:100020000C946C000C946C000C946C000C946C00A0
:100030000C946C000C94B7010C946C000C946C0044
:100040000C946C000C946C000C946C000C946C0080
:100050000C946C000C946C000C946C000C946C0070
:100060000C946C000C946C000C946C000C946C0060
:100070000C946C000C946C000C946C000C946C0050
:100080000C946C000C946C000C946C008A02A3021B
:10009000C002EE020B0323037D0311241FBECFEF2A
:1000A000D0E4DEBFCDBF11E0A0E0B1E0E6EEF7E0C6
:1000B00000E00BBF02C007900D92AC31B107D9F739
:1000C00021E0ACE1B1E001C01D92A632B207E1F738
:1000D0000E94A4030C94F1030C940000CF93DF93CF
:1000E000CDB7DEB781E00E9495000000DF91CF918F
:1000F0000895CF93DF93CDB7DEB784E690E00E94FA
:10010000390188E30E94950086E00E9495008FE007
:100110000E94950081E00E9495008AE090E00E9494
:1001200039010000DF91CF910895CF93DF931F92A3
:10013000CDB7DEB789838BE290E02BE230E0F901A6
:1001400020812F7BFC01208388E290E02981FC0143
:1001500020838BE290E02BE230E0F90120812068DF
:10016000FC01208300008BE290E02BE230E0F901FB
:1001700020812F77FC01208382E090E00E943901EA
:1001800000000F90DF91CF910895CF93DF931F92DE
:10019000CDB7DEB789838BE290E02BE230E0F90146
:1001A00020812064FC01208388E290E02981FC0109
:1001B00020838BE290E02BE230E0F901208120687F
:1001C000FC01208300008BE290E02BE230E0F9019B
:1001D00020812F77FC01208381E090E00E9439018B
:1001E00000000F90DF91CF910895CF93DF9300D05F
:1001F00000D0CDB7DEB78A837C836B830E946E000C
:100200008A81898311C0898191E0980F99830E9426
:1002100022018B819C819C012F5F3F4F3C832B836C
:10022000FC0180810E94C5008B819C81FC01808142
:10023000882349F700000F900F900F900F90DF91E7
:10024000CF910895CF93DF931F92CDB7DEB7898307
:100250008981813128F4898181580E94950004C0E8
:10026000898181550E94950000000F90DF91CF9108
:100270000895CF93DF9300D000D000D0CDB7DEB784
:100280009E838D831A82198213C01C821B8206C032
:1002900000008B819C8101969C838B838B819C8148
:1002A00087309340ACF389819A8101969A83898340
:1002B00029813A818D819E812817390734F3000006
:1002C00026960FB6F894DEBF0FBECDBFDF91CF915B
:1002D0000895CF93DF93CDB7DEB781E890E02BE0B0
:1002E000FC01208388E890E02DE730E0FC013183B9
:1002F00020838FE690E022E0FC01208384E890E0F8
:10030000FC01118210828091000190910101A09165
:100310000201B091030180931D0190931E01A093EF
:100320001F01B09320018FE590E02FE530E0F90147
:1003300020812068FC0120830000DF91CF91089587
:10034000CF93DF93CDB7DEB781E890E0FC01108258
:100350000000DF91CF910895CF93DF93CDB7DEB743
:1003600081E080931C010000DF91CF9108951F92DE
:100370000F9200905F000F92112400905B000F928B
:100380002F933F934F935F936F937F938F939F939D
:10039000AF93BF93EF93FF93CF93DF93CDB7DEB7C8
:1003A00080911D0190911E01A0911F01B09120012B
:1003B0000197A109B10980931D0190931E01A0939B
:1003C0001F01B093200180911D0190911E01A09109
:1003D0001F01B0912001892B8A2B8B2B91F40E9455
:1003E000AC018091000190910101A0910201B091B6
:1003F000030180931D0190931E01A0931F01B093F0
:1004000020010000DF91CF91FF91EF91BF91AF915B
:100410009F918F917F916F915F914F913F912F911C
:100420000F9000925B000F9000925F000F901F9062
:100430001895CF93DF9300D000D0CDB7DEB7698396
:100440007A838B839C8389819A81AB81BC818093E1
:10045000000190930101A0930201B09303018091E8
:10046000000190910101A0910201B09103018093DC
:100470001D0190931E01A0931F01B0932001000065
:100480000F900F900F900F90DF91CF910895CF9321
:10049000DF9300D01F92CDB7DEB789837B836A8359
:1004A00089818A3031F48A819B81BC018DE00E9470
:1004B000470280EC90E0FC018081882F90E0807200
:1004C0009927892BB1F386EC90E02981FC012083E8
:1004D00080E090E00F900F900F90DF91CF91089502
:1004E000CF93DF93CDB7DEB78091220190912301A6
:1004F000CC01A0E0B0E040E050E026E030E0841B1A
:10050000950B2817390708F41BC18A5B9F4FFC0124
:100510000C94E80385E290E0FC0110821092250122
:1005200085E0809324010E946E0080912401882F31
:1005300090E0C0960E94C50081E090E09093230176
:1005400080932201FDC085E290E021E0FC01208340
:1005500080E290E0FC018081882F90E081709927F3
:10056000892B39F484E090E0909323018093220159
:10057000E7C082E090E09093230180932201E0C0E5
:1005800085E290E022E0FC012083809125018F5FCD
:100590008093250180E290E0FC018081882F90E02B
:1005A00081709927892B39F484E090E0909323019E
:1005B00080932201C5C0809125018170882339F084
:1005C00083E090E09093230180932201B9C081E001
:1005D00090E09093230180932201B2C085E290E0E5
:1005E00024E0FC01208380E290E0FC018081882FE0
:1005F00090E081709927892B39F484E090E0909302
:100600002301809322019CC082E090E0909323011B
:100610008093220195C080E290E0FC018081882FC8
:1006200090E081709927892B39F484E090E09093D1
:1006300023018093220184C085E090E09093230100
:10064000809322017DC0809121018823C9F585E234
:1006500090E0FC018081813031F085E290E0FC0186
:100660008081843099F480912401882329F080913D
:1006700024018150809324010E946E008091240106
:10068000882F90E0C0960E94C5000EC08091240182
:100690008F5F809324010E946E0080912401882F37
:1006A00090E0C0960E94C50080912401893041F4F9
:1006B0000E946E0062E171E081E090E00E94F5002E
:1006C00081E08093210180E290E0FC018081882F0D
:1006D00090E081709927892B39F085E090E0909324
:1006E0002301809322012CC086E090E090932301A7
:1006F000809322011092210123C080E290E0FC014E
:100700008081882F90E081709927892B39F486E0C9
:1007100090E0909323018093220111C080912401E5
:10072000893029F4109223011092220108C081E03F
:1007300090E0909323018093220110922501000004
:100740000000DF91CF910895CF93DF93CDB7DEB74F
:1007500081E290E0FC01108282E290E02FEFFC0148
:10076000208384E290E02FEFFC01208385E290E07B
:10077000FC01108287E290E02FEFFC01208388E2E9
:1007800090E0FC0110828AE290E02FEFFC012083D0
:100790008BE290E0FC0110826CE271E080E090E07E
:1007A0000E9419020E9469010E94790081E090E094
:1007B0000E94220110922301109222010E947002D5
:1007C000000080911C018823E1F310921C01F6CFF8
:1007D000EE0FFF1F0024001C0BBE0790F691E02DCA
:0607E0000994F894FFCF1C
:1007E60001000000000000020000000047020000B7
:0C07F600000057494E4E455221210000E2
:00000001FF
